:020000021000EC
:1090000000000120759301005D9301005F93010052
:10901000619301006393010065930100000000006B
:109020000000000000000000000000006793010045
:1090300069930100000000006B9301006D93010033
:10904000ADCD01006F930100B1D101006F9301001C
:109050006F9301006F93010065D001006F930100D1
:109060006F9301006F9301006F9301006F930100F4
:109070006F9301006F9301006F9301006F930100E4
:109080006F93010071A801006F9301006F930100BD
:109090006F9301006F930100514602006F9301002E
:1090A0006F9301006F9301006F9301006F930100B4
:1090B0006F9301006F9301000000000000000000AA
:1090C0006F9301006F9301006F9301006F93010094
:1090D0006F9301006F9301006F9301000000000087
:1090E0000000000000000000000000000000000080
:1090F0000000000000000000000000000000000070
:10910000000000000000000000000000000000005F
:10911000000000000000000000000000000000004F
:10912000000000000000000000000000000000003F
:10913000000000000000000000000000000000002F
:10914000000000000000000000000000000000001F
:10915000000000000000000000000000000000000F
:1091600000000000000000000000000000000000FF
:1091700000000000000000000000000000000000EF
:1091800000000000000000000000000000000000DF
:1091900000000000000000000000000000000000CF
:1091A00000000000000000000000000000000000BF
:1091B00000000000000000000000000000000000AF
:1091C000000000000000000000000000000000009F
:1091D000000000000000000000000000000000008F
:1091E000000000000000000000000000000000007F
:1091F000000000000000000000000000000000006F
:10920000354936480A1A02D0072291438D4634491F
:1092100034480A1A06D00722914381F309880222B2
:1092200082F3148830483149314A00F044F831481B
:109230003149324A00F03FF831483249324A00F0B1
:109240003AF832483249334A00F035F83248334967
:10925000334A00F030F833483349344A00F02BF8F1
:1092600033483449344A00F026F83448344900225F
:1092700000F02CF833483449002200F027F8334836
:109280003349091A082902DB002202604160314A91
:1092900090471F481F49884205D00268043003B434
:1092A000904703BCF7E700208646EC4600200021EB
:1092B000294A9047FEE7884207D0521A05D0037822
:1092C00001300B700131013AF9D17047884202D068
:1092D00002700130FAE770470000012000F800201A
:1092E000000001200000012034730200541A002005
:1092F000A81C0020D0930100D0930100F84B02007D
:1093000034730200541A0020541A0020884D0200C1
:10931000884D0200884D0200884D0200884D0200F1
:10932000884D0200884D0200884D02003273020011
:1093300088750200A81C0020A81C0020A81C002082
:10934000BA2D0020BC2D0020BC2D0020BC2D0020FB
:10935000BC3500209D93010051E70100FEE7FEE7C8
:10936000FEE7FEE7FEE7FEE7FEE7FEE7FEE7FEE7D5
:1093700000F002B8FFF7FCBF0F484FF00701884329
:1093800085460E4880470E48016841F4700101602F
:10939000BFF34F8FBFF36F8FFFF732BF09480A4902
:1093A0000A4A884207D0521A05D0037801300B7060
:1093B0000131013AF9D17047000001205DC7010079
:1093C00088ED00E0744D0200401A0020541A00207D
:1093D000F0B595B01D46164608460C4603F096F8C3
:1093E0001A9B0D93CDE9086500252B46082205A997
:1093F00020460A958DF82C500C9503F0A3F8079B96
:109400000293069B03939DF814308DF8115003F0DE
:109410000302012A1DD1BDF81420059DC3F3C20328
:10942000C2F383168DF81030B20008230EA920462F
:1094300003F088F8C5F3952508AB0093324602ABDC
:109440000EA9284600F0C4FB204603F063F815B0CF
:10945000F0BD022AF8D1BDF81650C3F3C203C5F31C
:1094600089158DF810300827082D2E4628BF0826AC
:109470003B4632460EA9204603F064F8AD1B08AB0C
:1094800002AA31460EA8374400F006FC002DEBD1AD
:10949000DAE70000014B01221A707047E91C002036
:1094A0007047000070B50E4D06460FCD88B06C4673
:1094B0000FC495E80F00002E84E80F00094A0A48FF
:1094C0004FF0060308BF00226946009303F0F6FB45
:1094D00008B100F0B3FD054B1E7008B070BD00BFB1
:1094E000884D020095940100541A0020A81C002009
:1094F00007B5044B0093044A4023FFF769FF03B00C
:109500005DF804FB0D950100A91C002038B50D483D
:109510000D4C0E4D002323700378EB5CD2B263B187
:10952000043004F0D3FA08B100F088FD084B1A7833
:1095300012B12378002BFBD038BD0C3004F074F846
:10954000F1E700BF541A0020E91C00207825002014
:10955000A81C002008B50848084A0378D35C3BB132
:10956000043004F017FABDE808400020FFF79ABF66
:109570000C3003F0E3FFF6E7541A002078250020B2
:109580000120FFF78FBF000008B5FFF7F9FF04487F
:10959000042100F087FA034B01225A7108BD00BF75
:1095A000644D0200681A0020037813F0040216D0FC
:1095B00003F00303012B03D0022B09D001207047D5
:1095C0000A6800880232C0F3831002440A60F5E79B
:1095D0000B684288023303EB92130B60EEE71046F0
:1095E000704700002DE9F04FDFF81CA187B00F464F
:1095F00000230446861C0DF1070015468DF8073040
:1096000000F0C8FFDAF804203A60DAF8083003F511
:1096100080739B1A0AF21C470AF583690AF2144800
:10962000B3421AD30020002D69D004F00F039B0130
:1096300043F0050363F30F00DAF80430DAB20332C3
:1096400033444AF822009DF80700CAF8043000F0BD
:10965000C5FF012007B0BDE8F08F0121384602F0B8
:10966000C1F9484602F0D9F9404602F0D6F9DAF8D5
:1096700008000290C0B203300AEB800002A9FFF795
:1096800093FF029B30BBDAB20AEB8202D1680391EE
:109690009A1C0133DBB20AEB83030292D3F80CB0BD
:1096A00001F00303012B22D0022B15D08346404644
:1096B00002F0B6F910B1029BCAF808305946384694
:1096C00002F090F9DAF80830DAF8042003F5807334
:1096D0009B1AA5E7D8B2CEE7BDF80E30C3F38913C5
:1096E00003334FEA1B4B02EB93030293DFE7BDF812
:1096F0000C30C3F383134FEA1B4B1344F5E7A40567
:1097000044F0060098E700BFBC1D0020064B074848
:1097100010B500221A7002F0B2FE044610B90448D7
:1097200002F05AFF204610BDBC1D0020804C0200F4
:10973000DC4D020030B50A4C71B10A4A0A49121BCD
:10974000D20800239A4201D1002030BD31F82350C5
:10975000854202D00133F5E7034654F83300F4E7BD
:10976000944C0200644D0200541A0020094B013948
:1097700003EBC000032909D8DFE801F00A02040660
:109780000420704700797047407970470020704787
:1097900002207047944C0200034BD3E90130C31AF6
:1097A00058425841704700BFBC1D00202DE9F041D0
:1097B00086B0FFF7F1FF0546002840F0ED80774CBA
:1097C000C4F81804BFF34F8FA3680293DBB20333CE
:1097D00004EB830002A9FFF7E7FE029B18B1D4F85F
:1097E0001824002A5AD0DAB2991C013304EB820201
:1097F000DBB204EB8303D268DB68049302F003035B
:10980000022B0392029154D1BDF80E306448C3F389
:109810008917502F3E4628BF502606F1080166F3EF
:109820008F13C1F30901ADF80E3002F040FE05467A
:10983000002800F09C8002F069FE0023082203A9A2
:10984000284602F075FE0299CB43DBB20133C9B260
:109850000331B6EB830F4FEA830204EB810125D974
:109860005FFA82F80823A6EB0806284602F060FE9D
:10987000F6B208F108034B4903F0FC0332462846D0
:1098800002F056FE029B033703EB97070297D4F8CA
:109890001834002B43D1D4F8106453E062689A4224
:1098A00094D8A260284606B0BDE8F081082332466D
:1098B000E5E7012B5BD1BDF80C303948C3F38311C8
:1098C000062928BF062161F38913023101F00F0137
:1098D0008900ADF80C3002F0EAFD0546002846D0BC
:1098E00002F014FE0023082203A9284602F020FEFD
:1098F0000026BDF80C20C2F38312B300964203F198
:109900000803C4D202994A1CC9B20331029204EB83
:1099100081010422284602F00BFE0136E9E72846C1
:1099200002F0F8FDFFF738FF80F00100C5B2B9E79B
:10993000F3685B7923B1336829461B683046984742
:10994000F3681E68002EF3D1284602F0E3FD0DF106
:1099500007008DF8076000F01DFED4F818340BB92D
:10996000029BA3609DF8070000F038FEDAE7D4F808
:10997000104454B90C4B0D480D49C01AC0080004DE
:1099800040F0020000F05CF8CCE7236820469B68BA
:109990009847E3681C68ECE7002583E7BC1D0020BE
:1099A000804C0200C81D0020944C0200BC4C0200F8
:1099B000C54D02002DE9F34704460E46924601A923
:1099C000012218469946FFF70DFE1B4F10B3019D6B
:1099D0004FF00008AA1CC84508EB020123D1174824
:1099E000002101F0B8FF80F31000000440EA1440A9
:1099F000E4006B1C04F03804DBB2EDB244F0010467
:109A000007EB8303033544EA881444EA8624D860CC
:109A100047F825403B781BB1FFF7C8FE0028FBD173
:109A200002B0BDE8F087C9B207EB81015AF82830CF
:109A3000CB6008F10108CEE7BC1D0020D821002032
:109A400000231A46FFF7B6BF07B50123019201AA0A
:109A5000FFF7B0FF03B05DF804FB07B5CDE90023C5
:109A600002236A46FFF7A6FF03B05DF804FB1FB5AB
:109A7000CDE90123069B039301AA0323FFF79AFF75
:109A800005B05DF804FB1FB5CDE90023069B0293EA
:109A9000079B03936A460423FFF78CFF05B05DF82C
:109AA00004FB000030B50F4CD4F81024034600200E
:109AB000114631B9D96808714AB9C4F810340A603E
:109AC00030BDC9680D79854206D00968F1E7D268D2
:109AD00014680C601360F3E701300A28E8D14FF0F6
:109AE000FF30EDE7BC1D002038B5084B0125D3F849
:109AF00010441D7004B938BDE3685D7123682046C9
:109B00005B689847E3681C68F4E700BFBC1D002051
:109B100030B5C38885B004460D4633B1144A00926F
:109B20001449154A284601F0DEFF217A05291DD087
:109B3000637A4BB1A088FFF719FE104B104953F818
:109B40002020284601F0CFFF227A0E4BA08853F840
:109B5000222003920021FFF7EDFD039A0A490346F4
:109B6000284605B0BDE8304001F0BDBF05B030BDAE
:109B7000084E0200F04D0200E84D0200744E020053
:109B80004F660200984E02000D4E020007B50346D4
:109B90000846197A052911D05B7A2BB1094A0A497E
:109BA000019001F0A0FF01980849019001F09BFF8E
:109BB000019803B05DF804EB01F08ABF002AF8D0E9
:109BC000F2E700BF084E02004F660200054E020099
:109BD0002DE9F04385B01F460C9D002395F80C90AD
:109BE0002B7306460C46904629463846FFF790FFF1
:109BF000B8F1060F09D8DFE808F00412181F28335F
:109C000040003146284601F06EFF002229463846C2
:109C1000FFF7BCFF85F80C9005B0BDE8F083226823
:109C20003146284601F05FFFEFE7D4E900233146D3
:109C3000284601F058FFE8E7A36800933146D4E9CD
:109C40000023284601F04FFFDFE7E3680193A36894
:109C500000933146D4E90023284601F044FFD4E7BD
:109C600023690293E3680193A36800933146D4E922
:109C70000023284601F037FFC7E763690393236990
:109C80000293E3680193A36800933146D4E900236B
:109C9000284601F028FFB8E708292DE9F74F80464C
:109CA0000E4617461C463DD800251B7B25732146D2
:109CB00010460193FFF72CFFDFF88CA0DFF88CB083
:109CC000AE4232D918F805205946204601F00BFF64
:109CD0000135082DF4D11B49DFF874A0DFF874B00A
:109CE000204601F000FF4FF000094E4524D918F836
:109CF00009507E2D1ED828460AF0B6FE002814BF53
:109D00002A462E225946204601F0EDFE09F10109AE
:109D1000B9F1080FE9D1012221463846FFF736FF95
:109D2000019B237303B0BDE8F08F5146204601F03C
:109D3000DAFECDE72E22E5E75146204601F0D3FEBC
:109D4000E4E700BF214E02001D4E0200174E020044
:109D50001F4E0200234E0200C30710B507D4F023A4
:109D6000054A4008145C23401943115410BD0901F1
:109D7000C9B20F23F4E700BFA822002030B5094B79
:109D80001C78094B196800239C4202DC0022104613
:109D900030BD11F83350854201EBC302F7D00133D7
:109DA000F2E700BF74220020B822002013B5044659
:109DB0000191FFF7E3FF38B143682BB101992046C9
:109DC00002B0BDE81040184702B010BD034B044874
:109DD00019680022490800F0F0BA00BF782200207C
:109DE0008022002010B5C0B2FFF7C8FF04460078FB
:109DF00003F02EF963785A1E53425341834208D12F
:109E0000044BD3E90023134303D1BDE81040FFF70F
:109E1000DDBF10BDA022002037B54308374AD35C10
:109E2000C2074CBF1B0903F00F0304460D46042B69
:109E300025D8DFE803F003262F3C4000F9B10121CB
:109E4000FFF78AFF00230DF107008DF8073000F0BF
:109E5000A1FB0120A4F12003C4F12001284A20FA2B
:109E600001F100FA03F30B43A040D2E90041204383
:109E70000B43C2E900039DF8070000F0AFFB03B0FD
:109E800030BD002918BF0221204603B0BDE8304094
:109E9000FFF762BF49B10321FFF75EFF01212046B2
:109EA00003B0BDE83040FFF781BF0121ECE7002996
:109EB000E5D10421E8E709B10321E5E7FFF74CFF0D
:109EC00029462046FFF772FF0DF107008DF8075075
:109ED00000F060FB0120A4F12003C4F12001084A36
:109EE00020FA01F100FA03F30B43A040D2E900414C
:109EF00024EA000021EA0303BBE700BFA8220020F8
:109F0000A02200202DE9F041124E134F0024337897
:109F1000A34208DC114BD3E90023134318D0BDE85A
:109F2000F041FFF753BF3D6805EBC40815F8340056
:109F300003F08EF898F801305A1E53425341181A14
:109F40004142414115F83400FFF766FF0134DEE776
:109F5000BDE8F08174220020B8220020A022002059
:109F6000092AF7B505460C4616463ED902F0A8FF69
:109F7000E8B11F4B1F481D601F4B204F1C70204B2A
:109F8000002110221E600AF0D4FD1E4B002000218B
:109F9000C3E90001013CE4B20326FF2C0DD11A4AAB
:109FA0001A48002103B0BDE8F04000F0FBB902F010
:109FB0004FFF0028DDD003B0F0BD9DF8063015F846
:109FC00034008DF8046005EBC40223F007038DF81C
:109FD000063001A993788DF805303A4602F07AFFF1
:109FE000013CE4B20028D8D0E5E70720E3E700BF52
:109FF000B8220020A822002074220020E59D010044
:10A0000078220020A0220020059F0100B84E020007
:10A0100070B5084D084E00242B789C4201D30020D7
:10A0200070BD3368012113F8340002F0CBFF013416
:10A03000F2E700BF74220020B82200201FB50021E3
:10A04000039001AA44F20100CDE9011100F004F8E7
:10A0500005B05DF804FB000038B572B6FFF744FDAB
:10A06000FFF7A4FB0028FBD1104B114C114D1249F6
:10A07000E41AE408240444F00100FFF7E1FCD5F8F9
:10A08000F030DB0700D500BE0C4944F00200FFF7BA
:10A09000D7FCBFF34F8FEA68094B02F4E062134329
:10A0A000EB60BFF34F8F00BFFDE700BF944C020091
:10A0B000BC4C020000ED00E0BC4E0200C84E0200A5
:10A0C0000400FA054B1C30B5DB00044612F0030017
:10A0D0009BB20DD1074D2A601A44074B1A60074BFB
:10A0E0001870074B1870074B1C80074B198030BD48
:10A0F0000720FCE7C4220020C0220020BC22002050
:10A10000CC220020C8220020CA2200202DE9F743DB
:10A11000DFF8BC80B8F800308B4206460D46174683
:10A1200047D300240DF107008DF8074000F032FA04
:10A13000224B234A23481B78008892F800C08445AC
:10A140005FFA8CF138BF4C1CDBB238BFE4B2A342DB
:10A1500028D014781178CBB2884286BF0133DBB2A5
:10A16000002313709DF8070000F038FA4FF6FF73D4
:10A170009C4220D0144B1B6843F8347003EBC40995
:10A180009EB195B1114BB8F800001B682A463146C4
:10A1900004FB00300AF0A4FCA9F80450002003B02E
:10A1A000BDE8F0834FF6FF74DCE70020A9F8040057
:10A1B000F5E70920F3E70420F1E700BFCC220020F7
:10A1C000BC220020CA220020C4220020C02200207D
:10A1D000C822002070B5104C104D22782B789A427E
:10A1E00000D170BD0E480F4A2378126806880E48C9
:10A1F00002EBC301006852F83320898803FB060094
:10A2000090470A4922780988D3B2914286BF013328
:10A21000DBB200232370E0E7CC220020BC22002028
:10A22000C8220020C4220020C0220020CA22002010
:10A2300010B5D0E90243D1E90202A04272EB030358
:10A240002CBF0120002010BDD0E9003018470000CD
:10A2500008B50A4800F0F5FA094AD2E90031C018F9
:10A26000084BD3E9002341F10001904271EB030355
:10A2700003D210F1807041F1000108BD701A002076
:10A28000D82200205023002037B505460C460A4846
:10A2900001A901F094FA60B10570446001A9064873
:10A2A00001F0B7FA18B1054800F0D0FA002003B069
:10A2B00030BD0420FBE700BF3C230020701A0020C3
:10A2C0001C4B37B51D78044675B380B3037F03F08C
:10A2D000FF054BB3FFF7BCFFD4E90223904271EBBB
:10A2E00003031BD3236903B9237763690093124ADD
:10A2F000A369019308216846FFF708FF08B1FFF73B
:10A300009DFE22697AB1237F03F0FF0563B1D4E992
:10A3100002319B1841F10001C4E90231074821468E
:10A3200002F079F900E01546284603B030BD054635
:10A33000FAE700BFE022002049A20100E44E02003B
:10A3400013B5114B11491868019008231048582281
:10A3500001F000FA044698B90E4A0F4801A900F02E
:10A3600061F9044660B90C48012100F04DFA01235F
:10A370000A4A0948194600F0AFF9094B01221A7040
:10A38000204602B010BD00BFE04E0200E4220020D3
:10A390003C23002005A40100701A0020FFFF7F006D
:10A3A000E02200203AB103685A614A1E51425141ED
:10A3B0001961002070470720704738B5037F0446B5
:10A3C0000D4683B98261FFF743FF2369281841F1E5
:10A3D0000001C4E9020103B1256121460020BDE866
:10A3E0003840FFF751BF002038BD002301460377F6
:10A3F0000120FFF749BF0000014800F022BA00BF6A
:10A40000701A00202DE9F347064600F005FA40B126
:10A41000584AD2E9003113F1807341F10001C2E9D9
:10A4200000310021304600F006FA38B1524C236862
:10A4300023B12068FFF744FF002323600121304649
:10A4400000F0F9F920B1FFF703FF4C4BC3E900011D
:10A450004B48494D4B4C4C4F01A901F0EAF90028FB
:10A4600042D1DFF82081444CDFF82491404602F0CD
:10A47000E8F82368002872D07BB12368D0E9025243
:10A48000D3E902138D4272EB03032AD223681B7FA8
:10A490001BB12168404602F0BEF8404602F0CBF8FE
:10A4A000D0E9027A0546FFF7D3FE381A6AEB010AB3
:10A4B00001287AF1000345DBB0F5350F40D3FFF7F3
:10A4C0009BFF324A02444FF496030021484600F0B5
:10A4D00023F900283ED1236813B9304600F0F4F880
:10A4E000256002B0BDE8F0870378012B1DD0022B58
:10A4F00009D14FF00008204602F09DF8002836D020
:10A5000080F81C80F7E73BB941680B7F23B9012332
:10A510000B77204602F07FF801A9194801F0B4F941
:10A5200001A9174801F085F999E741682B6899421C
:10A5300002D100232B60EFE7204602F085F8EBE71D
:10A54000AA68C0E70021484600F06BF92846FFF7EB
:10A55000B7FE01E00D28F9D00023236086E7002B29
:10A56000BFD1304602B0BDE8F04700F0B1B80123DA
:10A570003B70D1E7D8220020582300205023002030
:10A580003C230020E44E0200E0220020FFFFB40044
:10A59000701A002070B5EFF3108672B60C4A9468FA
:10A5A00001239CB993600B4B0B4DD3F880102940CD
:10A5B0001160C3F88050D3F8841051604FF0FF321F
:10A5C000C3F88420047006B962B670BD0370FAE760
:10A5D0005C23002000E100E0FC06FFBD084B9A6808
:10A5E00010B55AB150B9EFF3108172B6054A1C6824
:10A5F00014605C685460986001B962B610BD00BF19
:10A600005C23002000E100E0435882B03BB100230E
:10A61000435043580193019B012002B070471846F4
:10A62000FBE70000F8B5204B4479204E43F8242086
:10A630001F4A204B06EBC4049B1A2279DB081B043B
:10A6400032B143F002001C49FFF7FAF90820F8BDC7
:10A6500002680C88C2F8084590F904508A78047999
:10A660005201002DD2B219DB14494F1987F800238B
:10A6700001226D0904F01F0402FA04F441F8254098
:10A68000427906EBC201012446F832000C7143F016
:10A6900003000B49FFF7D4F90020D8E7094904F07B
:10A6A0000F040A55ECE700BF702300206823002048
:10A6B000944C0200CC4C0200F04E020000E100E09D
:10A6C000124F020014ED00E0036801221A60704787
:10A6D000036801225A60704773B501F15005AD005F
:10A6E0000068ADB24FF480348C400026C0F80843B7
:10A6F000C0F84843465101F5A8714559019522F02B
:10A700007F42019D40F82120C0F844430BB1C0F8BE
:10A71000044302B070BD00002DE9F74F0D4622F052
:10A720007F4402684FF4803705F150068F40804621
:10A73000B60002EB8500C2F84873B6B2C2F80873DF
:10A74000D2F8041599464FF0000BD0F84035C0F808
:10A75000401542F806B05B1A9259009223F07F43ED
:10A76000012B009A4FEA850A0CD1264B4FF48060EA
:10A7700043F001039847D8F8003043F806B09B59DE
:10A780000193019BD8F80010D1F80465C1F8447317
:10A79000A31B23F07F43012B1CD11A4B05F5A87591
:10A7A000013443F0010341F825404FF4806098479D
:10A7B000D8F80030D3F804359E4209D1D8F80030DB
:10A7C0000020C3F84473C3F8047303B0BDE8F08FEE
:10A7D0000D20FAE78A44C9F1FF13CAF84045D1F8C1
:10A7E0000405221A013A22F07F4203F57F43934287
:10A7F000EED3002AE2D10134CAF84045D1F804353D
:10A800009842DAE7304F020003680222C3F844237B
:10A8100009B1C3F80423704700684FF48271FFF751
:10A82000F3BE4FF4803303FA01F10368C3F8481311
:10A83000C3F80813704750318900006889B2FFF7E8
:10A84000E3BE0368D3F804057047000090F90430B4
:10A85000002B09DB5A09012103F01F0301FA03F35E
:10A860004032024941F82230704700BF00E100E069
:10A87000024B034A1B681068184700BF7023002072
:10A880006823002070B5064D0646002455F8043BA9
:10A890000BB1304698470134042CF7D170BD00BF8E
:10A8A000802300204388033300EB830399420BD3BA
:10A8B00082884FF6FF739A4208D0038833B18068CC
:10A8C000431C58425841704702207047012070478E
:10A8D000033080B240F2FE33984230B51FD8134B9C
:10A8E0001A783AB91C895D892C440444A4B2B4F5A1
:10A8F000806F0AD91A7DAAB99A8BDC8B2244024454
:10A9000092B2B2F5806F0DD801220A80144614224B
:10A9100002FB04335A8910445881002030BD48F2AC
:10A920000860FBE748F20660F8E700BFB4230020A8
:10A930000B4A0C495388142000FB0311CB6833B930
:10A940000420496810700122074801F061BB0749E3
:10A950000523137002238B80012209680023F3E78B
:10A9600098230020B4230020401A00207C240020DB
:10A9700007B5002305490093054A096805480823DF
:10A9800001F0ACFA03B05DF804FB00BF7C240020AA
:10A99000444F0200401A002007B5002301460093EF
:10A9A000034A0448082301F099FA03B05DF804FB58
:10A9B0003C4F0200401A002013B500230C460093C0
:10A9C0000146084A0848042301F088FA38B9074BC1
:10A9D000142101FB043101230B7402B010BD48F2B5
:10A9E0000D60FAE7384F0200401A0020B42300201F
:10A9F00037B50A480A4B42689C8819685388032572
:10AA0000033305709BB2002000909B0001EB840192
:10AA1000044801F063FA03B030BD00BF9823002062
:10AA20007C240020401A002010B50146044800F0A4
:10AA3000C6FE1C22044600210AF07BF8204610BD09
:10AA40006824002068B10268084B9A4209D1406826
:10AA5000074B984207D00133984214BF03200120CE
:10AA60007047032070470020704700BFDEC0ADDE96
:10AA7000FE011EF12DE9F0410D460223154F2B80FA
:10AA8000164600F5805100F108044FF001088C4291
:10AA90000ED2236801330BD02046FFF703FF48B1E5
:10AAA0000EB186F80080022809D14FF480632B8014
:10AAB000BDE8F081A3683A68934200D93B602B88D7
:10AAC0006288033313442B806388033304EB8304CD
:10AAD000DDE700BFAC23002038B5144B14220D462F
:10AAE00002FB00302B68446804F58051A3B15C88F8
:10AAF000033403EB84048C4215D22368013312D053
:10AB00002046FFF7CFFE012808D002280BD00028EE
:10AB1000F1D12C60012038BD0834ECE763880333A1
:10AB200004EB8304E7E70020F5E700BFB42300202F
:10AB3000426873B504460D466AB3234BD9688A420E
:10AB400029D31B699A4226D812F0030323D11F4947
:10AB50000089098988421ED12068916888421AD1EB
:10AB60001B4841688A4203D901F580518A420DD3BE
:10AB700081698A420CD901F580518A4208D20122AA
:10AB80002A80B3FA83F0400902B070BD1A46F7E795
:10AB900048F20963F5E700262E800196288801A96E
:10ABA000FFF79AFF30B92B8801339BB2012B2B8022
:10ABB000F3D9E9E7019B226899689142EED163607D
:10ABC000024B1B892381DFE7401A002098230020D5
:10ABD000B42300202DE9F8431C461D4B1B78064684
:10ABE0000F46154673B382B37CB3DFF86C804FF029
:10ABF0001409A388012B02D948F2096020E009FB5F
:10AC000003F318F803302BB9A0882146FFF764FF3F
:10AC100020B92060A3880133A380EAE723681EB12E
:10AC2000998832889142EFD11FB119883A889142B0
:10AC3000EAD19A68C5E90023064B1B892B810020C5
:10AC4000BDE8F88348F20160FAE748F20460F7E7EC
:10AC50009023002098230020B423002008B5074B40
:10AC60005888191DFFF738FF18B1BDE80840FFF7F5
:10AC7000BFBEBDE80840FFF75BBE00BF98230020C1
:10AC80002DE9F047A24FDFF8AC8288B006463B685A
:10AC900023B9A048414600F0CCFD38603D682978D2
:10ACA0004B1E052B07D8DFE813F020007A007A004E
:10ACB0000C010C01630148F20E641422002103A868
:10ACC00009F037FF41F61D539C4208BF00243B6842
:10ACD00004941A78023A042A00F20282DFE812F0A1
:10ACE000E301EF011102190220022EB18A4B00226A
:10ACF0005A604FF40644E0E72B79032B1CD8DFE8B9
:10AD000003F014022A35854A1378022B1AD0137DDA
:10AD1000022B4FF0010317D114214B43D11800200F
:10AD2000D0544868FFF738FE03E001232B71FFF78A
:10AD30001FFE002800F0BF80774B00225A6048F2C7
:10AD40000D64BAE70023E7E7734A137000235360EA
:10AD500041F61D54B1E772497248002302222B715B
:10AD60008A800968012201F053F9E2E76C4C002661
:10AD70002E712068FFF710FE6B4BDFF8A0C15B88D7
:10AD80002568142253430CEB03020CF8036051684E
:10AD90005560A588158102222160A280C9E7B5F817
:10ADA00014A0AA7DDFF87491AEB1022AEB8806D90F
:10ADB000142101FB0A91DA1C088902440A81142239
:10ADC00002FB0A99C3F57F43B9F80A20FD33134407
:10ADD000A9F80A308DE7142303FB0A9318895C68ED
:10ADE00004EB8004062A69D8DFE802F0274E3644D7
:10ADF0001D5A040041F61D54AA7DEB88022A06D98B
:10AE0000142101FB0A91DA1C088902440A811422E8
:10AE100002FB0A99C3F57F43B9F80A20FD331344B6
:10AE2000A9F80A3049E74148414900234360AB692A
:10AE30000360FFF77DFE00285BD00223AB75002383
:10AE400000930423EA182146364801F047F8002809
:10AE500031D048F20D64CFE72B69002B14BF0323D8
:10AE60000123AB750023009305F10C02042304F1C8
:10AE70000801E9E70123AB750022EB8800922A69FB
:10AE80009B0004F10C01DFE703290CBF0523062317
:10AE9000AB7500230093042305F10802E118D3E702
:10AEA0000623AB75224B1988204B5868FFF784FDA9
:10AEB00004460028A0D108B0BDE8F08748F20E642F
:10AEC0009AE7002E7FF415AF2B79012B34D0022B9B
:10AED0003FF43EAF002B7FF4EEAE02232B710DF159
:10AEE0000A01EB68039303A8CDE90466FFF720FE8F
:10AEF00010B948F20964E0E60498BDF80A108388A6
:10AF0000EB8003882B81FFF757FD044629E000BF43
:10AF1000B02300206824002090230020B4230020C8
:10AF20007C240020401A0020982300207423002055
:10AF300088240020A8230020DFF8009203AA4B46B3
:10AF40003146A81DFFF746FE044670B9B9F8041053
:10AF50000498FFF731FD044648F209639C423FF430
:10AF6000F7AE002C7FF4A9AEA5E7C9E90066F3E7C8
:10AF7000002E7FF4BEAE6C4B1A7BBAB11E731A78EA
:10AF8000013A062A3FF697AE01A151F822F000BF20
:10AF90003BB0010061B001007FB0010085B001004D
:10AFA000B7AC01008BB001009DB001001A78072AF0
:10AFB000E5D801A151F822F0D9AF01007FAF01001F
:10AFC0007FAF0100FFAF010013B0010037B00100F7
:10AFD00037B00100FBAF01001A89544901321A81D0
:10AFE00000225A801A730A78B2FA82F252099A72CF
:10AFF0000A7DB2FA82F25209DA72012207E04C4964
:10B0000058688A884088033202448A8002221A7073
:10B01000B5E75C88454A4649142505FB04220868C3
:10B02000546850608888108102200C60888000215C
:10B0300011740622EBE70722E9E79A7A32B9DA7A45
:10B040008AB900221A705A805A6081E63749002274
:10B050009A72CA68002AF2D1097C0029EFD05A807E
:10B06000FFF7FCFD51E70022DA72304A116A00292D
:10B07000E7D192F82420002AE3D00122EFE7FFF77E
:10B08000B7FC42E7FFF754FC3FE75A88274B1421EF
:10B0900001FB02335868FFF77FFC36E700225A6055
:10B0A000FFF766FC31E701228DF80C201A89ADF814
:10B0B00018209A88DB68ADF81A20059310E0022268
:10B0C0008DF80C201A89ADF818209A88ADF81A204E
:10B0D000DA689B7D05929A1F534253418DF81C30CC
:10B0E00003A8FFF7CFFB0026414612483E6000F060
:10B0F000CBFB1148012100F081FC00287FF4C7AD93
:10B10000D9E603228DF80C20DA88ADF818201A89C8
:10B11000D0E704228DF80C20DB88ADF81830DFE78B
:10B1200005238DF80C30DBE798230020B4230020A2
:10B130007C24002068240020782400208C24002017
:10B140004068FFF79DBD000008B50548012100F0EB
:10B150003DFC18B9BDE80840FFF792BD08BD00BF2F
:10B16000782400202DE9F3419846374B1B7806469A
:10B170000D46002B5CD000295DD009884FF6FF7387
:10B1800099425BD06B88002B58D06B689B0758D1D5
:10B190004AB92F890DF102013846FFF799FB30B10A
:10B1A00002B0BDE8F08113885788ADF8023001A8DD
:10B1B000FFF73AFC044660B9BDF80220234B142186
:10B1C00001FB023358890338C01B588148F20760DD
:10B1D000E6E780F8008000238375BDF802308382A3
:10B1E0006B68036101211A4800F0FCFB2B88238166
:10B1F000B8F1030F6B88A38004BF0423A3754FF03D
:10B20000000508BF3368E06008BFA3611148E7800C
:10B21000658101A900F0FDFA36B1E36833600E4B99
:10B2200075601B89B5723381FFF78EFF0020B7E789
:10B2300048F20160B4E748F20460B1E748F2036005
:10B24000AEE748F20260ABE790230020B423002071
:10B25000AC230020682400209823002008B5034672
:10B2600007480268042A08D00168064A42F82130DB
:10B27000012100F0B7FB002008BD48F20B60FBE79E
:10B2800084240020802300202DE9F04F89B014226F
:10B29000002103A809F04DFC7A4B1B7803F0FF0B4B
:10B2A0003BB103A8FFF7EEFA0027384609B0BDE826
:10B2B000F08F744B181D00F0ADFB0028F4D1DBF8C3
:10B2C000F83FDFF8E0A15C1C08BF4FF010234FF0FF
:10B2D000805208BF5B6911695269581C08BF02FBA4
:10B2E00001F3CAF810306849A3F5405300225046D4
:10B2F000CAF80C3000F0C0FD07460028D5D11C2349
:10B3000062496348DFF8A0918C2200F023FA0323FE
:10B31000B8463D4601933C46DAF80C604644304658
:10B32000FFF790FB012862D0032817D000283DD1F9
:10B3300058494FF0140C0CFB04FC01EB0C0201F813
:10B340000C0056600CF110020CF1080C0A44304657
:10B350006144FFF78FFB45F0020545E03268531C5E
:10B3600002D04D4B9A4234D1321D06F580511068FF
:10B3700001302ED104329142F9D1D9F800203AB9E6
:10B380000222C9F80060A9F804204FF0010B0BE07D
:10B39000142262433F4B0220991898543F4A4E6052
:10B3A000548001340881A4B245F0010508F58058A5
:10B3B000B8F5405FB0D1019B012B98BF0025EDB2DD
:10B3C000022D03D0062D32D0002D39D148F20A6764
:10B3D0006BE7019B2F495A1E93B2142262438818CF
:10B3E00001934660032088540134A4B2DEE7BBF128
:10B3F000000F0DD0274B1422624399180220985455
:10B40000D9F800204A60254A088154800134A4B24A
:10B4100000222349C9F800603046FFF72BFBB9F83A
:10B420000420022A0CBF042208221543BEE7154A55
:10B430000123137003A800235360FFF723FA34E7B6
:10B4400002A8FFF7F1FAC8B10123013D03700A2DEC
:10B4500009D8DFE805F006080608070807080F11F5
:10B460000F000023037102A9094800F0D2F9FFF789
:10B470006BFE1AE70323F5E70223F3E748F20767B9
:10B4800013E700BF9023002038510200DC23002086
:10B4900068240020B4230020DEC0ADDE9823002005
:10B4A00080240020401A00207C24002073B50D4623
:10B4B0000446C8B1C1B10DF10601FFF739FBB0B1C7
:10B4C000BDF806300B486668142202FB0300012118
:10B4D0000C3000F087FA63682E600C336B60012338
:10B4E000A372002002B070BD48F20460FAE748F28F
:10B4F0000960F7E7B423002013B50446A8B10DF1A5
:10B500000601FFF715FB98B1BDF806200B4B14217F
:10B5100001FB0233DA6872B1A27A62B1DA68002004
:10B52000013ADA60A07202B010BD48F20460FAE796
:10B5300048F20960F7E748F20560F4E7B423002019
:10B5400002230022FFF70EBE18B103230022FFF7EB
:10B5500009BE48F204607047114B1B7813B50446CE
:10B56000ABB14FF6FF73984214D001A8FFF75CFA15
:10B5700098B10523037001230371C48001A9094810
:10B5800000F047F9FFF7E0FD002002B010BD48F2DF
:10B590000160FAE748F20360F7E748F20760F4E772
:10B5A00090230020682400200F4B1B7807B5A3B11F
:10B5B00001A8FFF739FA98B10623037001A90B48D7
:10B5C00000F027F90A4B1A780AB101221A73FFF723
:10B5D000BBFD002003B05DF804FB48F20160F9E711
:10B5E00048F20760F6E700BF90230020682400209F
:10B5F0009823002007B5ADF80600ADF804100DF152
:10B60000060001A9FFF7E6FA03B05DF804FB07B5F1
:10B610001346ADF806000A4600200DF10601FFF7BB
:10B62000D9FA03B05DF804FB07B51346ADF8060080
:10B630000A460DF106000021FFF7CCFA03B05DF8D1
:10B6400004FB20B119B103680B600020704748F279
:10B65000046070472DE9F84F3C4B1B780446002BE3
:10B660006DD000286ED0DFF8E8901222002109F09A
:10B6700060FA032323804FF0000A4F4614264FF050
:10B680000108D9F80410B9F80AB0B9F8085008460A
:10B69000FFF7D8F9032808BF2388628804BF03F1A5
:10B6A000FF33238006FB0A735D44DB681344638029
:10B6B00023899B446389A4F808B0ADB22B4463810D
:10B6C000C5F58065A389ADB2AB4238BFA58101F154
:10B6D000080501F58051A94229D92B68013326D0EC
:10B6E0002846FFF7DFF801280AD0022815D00028E5
:10B6F000F1D1A3880133A3800AE04FF0010AC0E72B
:10B70000E3880133E380E3896A8803331344E381E8
:10B710006B88033305EB8305DDE7E38884F810804D
:10B720004D1BE189013301EBA501E380E18109F1C2
:10B730001409BAF1000FE0D00020BDE8F88F48F2FC
:10B740000160FAE748F20460F7E700BF90230020A9
:10B75000B423002010B561B1B2FBF3F403FB142451
:10B76000A4B244B9C0E9001484608281C381204638
:10B7700010BD0E20FCE70920FAE782B050E8022F46
:10B78000C188B2EB324F4FF0000317BF92B241EACB
:10B79000014142EA014104E04268B2EB324F08BF86
:10B7A000012340E80212002AE8D18DF807309DF805
:10B7B0000730002B0CBF1120002002B0704737B5B6
:10B7C00050E8013F9DB2C48925448489A54228BF21
:10B7D0002D1B0489A54202BFBFF32F8F002207E073
:10B7E000C5EA030540E80154002CE9D14FF00102FD
:10B7F0008DF803200193019A0A609DF8031001F06F
:10B80000FF0321B1006810FA82F003B030BD184682
:10B81000FBE70A884B889A4209D150E8012FC2EA17
:10B82000024240E80123002BF7D10120704700209D
:10B83000704737B550E8023F1FFAA3F5C488A54208
:10B8400002BFBFF32F8F00220DE0C48925448489F5
:10B85000A54228BF2D1BC3EA054540E80254002C31
:10B86000E8D14FF001028DF803200193019A0A609C
:10B870009DF8031001F0FF0321B1006800EB1240B6
:10B8800003B030BD1846FBE70A884B889A4209D1BD
:10B8900050E8022FC2EA224240E80223002BF7D1EF
:10B8A000012070470020704701F01F024B09012161
:10B8B000914000EB830000F065B84B0910B501F032
:10B8C0001F040121A14000EB830000F04FF8E0408D
:10B8D00000F0010010BD01F01F0301229A404B0946
:10B8E00000EB8300D14300F065B84B0901F01F0164
:10B8F00050F82300C84000F0010070472DE9F047E0
:10B900004F1E7F0980460E460137002558F8254016
:10B9100008EB8509E44394FAA4F4B4FA84F44FEAFA
:10B92000451A202C06D10135AF42EFD834462046C7
:10B93000BDE8F0875444A642F5D921464046FFF7BA
:10B94000BCFF0028F3D0D9F80040E44394FAA4F4F3
:10B95000B4FA84F4E5E710B5034653E8000F0A464D
:10B9600043E8002494F0000FF7D110BD10B5034652
:10B9700053E8000F40EA010243E8002494F0000F6E
:10B98000F6D110BD10B5034653E8002F42EA01007E
:10B9900043E8000494F0000FF6D110BD10B5034643
:10B9A00053E8000F00EA010243E8002494F0000F7E
:10B9B000F6D110BD10B5034653E8002F02EA01008E
:10B9C00043E8000494F0000FF6D110BD10B5034613
:10B9D00053E8000F00EB010243E8002494F0000F4D
:10B9E000F6D110BD10B5034653E8002F02EB01005D
:10B9F00043E8000494F0000FF6D110BD10B50346E3
:10BA000053E8002FA2EB010043E8000494F0000F7C
:10BA1000F6D110BD0121FFF7A9BF0121FFF7B2BF89
:10BA20000021FFF7BBBF10B590B1D0E90123016839
:10BA30009B1ADBB20A60013BDBB2FF2B026802D12A
:10BA40000020107110BD11684C1C14600B70F2E7DF
:10BA50000E20F7E737B5054600240DF107008DF8F5
:10BA60000740FEF797FD2A686B68116899420ED966
:10BA7000481E106011F8013CEC68298A01FB034460
:10BA8000AB6811791B1ADBB2994238BF13719DF86C
:10BA90000700FEF7A3FD204603B030BD37B50546CD
:10BAA00000230DF107000C468DF80730FEF772FDFC
:10BAB0002A681368591C1160E968641A298AB4FB62
:10BAC000F1F41C709DF80700FEF788FD03B030BD4F
:10BAD000826810B504462AB1436901680069984735
:10BAE0000023A36010BD0EB403B5039921B104ABCC
:10BAF00001AA019300F076F802B05DF804EB03B000
:10BB000070470A2938B504460D4602D10D21FFF7CA
:10BB1000F8FFA3682268591CA160D554D4E901320A
:10BB20009A4204D32046BDE83840FFF7D1BF38BD64
:10BB30002DE9F84F9846DDE90A43154682460F463F
:10BB40000A464FF00109AA420FD2C14538BFC1468B
:10BB500013F0010B01D16CB900240126B8F1010FDB
:10BB60001BD908F1FF386E43F8E709F10109B2FB70
:10BB7000F5F2E8E79B070ED5B8F1000F0CBF3026B1
:10BB80002026A145E9D2013C31465046FFF7B9FFD6
:10BB9000002CF6D1E0E72026F3E7B7FBF6F39D4251
:10BBA000E1D9DFF83C80B7FBF6F3504618F80310F4
:10BBB00006FB1377FFF7A5FF3346AB42B6FBF5F65E
:10BBC000F1D2BBF1000F02D00CB1A14501D3BDE809
:10BBD000F88F20215046013CFFF793FFF4E700BFA8
:10BBE0004C4F02002DE9F74F0546174688460029BD
:10BBF00000F03E8118F8011B49B92B7B002B00F0A7
:10BC00003781284603B0BDE8F04FFFF761BF252913
:10BC100040F0B780002698F800302D2B424608F1FE
:10BC2000010823D0302B24D02B2B25D000242A2B05
:10BC300002F1010123D13B681A1D1B683A601C44C4
:10BC40000A4613782E2B26D101324FF0000A1046F7
:10BC500010F8011BA1F1300CBCF1090F1DD80A230B
:10BC600003FB0A13A3F1300A0246F0E746F001068F
:10BC7000D1E746F00206CEE746F00406CBE711F81E
:10BC8000013CA3F130000928DBD80A2202FB04346E
:10BC9000303C0A46CBE74FF0000A12F8011B01F0D6
:10BCA000FB0068289046F8D0782909D86F290CD86D
:10BCB000632962D022D8252963D0582900F08880D2
:10BCC00098F80030002B95D197E770390829F7D8FC
:10BCD00001A353F821F000BF4BBE0100C1BC01001D
:10BCE000C1BC0100E1BD0100C1BC0100BFBD01003C
:10BCF000C1BC0100C1BC0100D1BD0100642901D05B
:10BD00006929DDD13A68D2F80090111D89EAE972FB
:10BD10003960A2EBE9724FF0010B092A35DCD345FB
:10BD200038BFD3462CB1B9F1000F01DB720700D543
:10BD3000013CB30702D5BAF1000F03D0F00701D4DC
:10BD40004CBB0024B9F1000F2DDAC9F100092D21F7
:10BD50002846FFF7D6FE06F00302022A04D1BAF104
:10BD6000000F01D11CBB0024CDE9004653460A2236
:10BD700049462846FFF7DCFEA2E73B681A1D197802
:10BD80003A602846FFF7BDFE9AE70A230BF1010B44
:10BD9000B2FBF3F2C1E7A345D4D220212846013CEF
:10BDA000FFF7AFFECCE77107D5D52B21D0E7A34530
:10BDB000DAD230212846013CFFF7A3FED2E73968EA
:10BDC000CDE900460A1D3A6053460A220968D0E7C9
:10BDD00039680A1D3A60CDE9004653461022F5E75E
:10BDE0003B681A1D3A6016F00106D3F8009024D182
:10BDF000B9F1000F03D0484608F0CEFE0646B44223
:10BE00001DD809F1FF3919F8011F00293FF458AF77
:10BE10002846FFF776FEF6E728460136FFF771FE63
:10BE200019F806100029F7D1A642BFF449AF202126
:10BE30002846013CFFF765FEF6E70026F0E72021E3
:10BE40002846013CFFF75DFED9E73B681A1D3A60C2
:10BE5000302128461C68FFF754FE78212846FFF75A
:10BE600050FE00220823CDE900322146102280E74F
:10BE700003B0BDE8F08F00BF13B50B46114680B983
:10BE8000104B1148114AC01A0E23C0080093104BE2
:10BE90000004104940F00100FDF7E9FD0E2002B05A
:10BEA00010BD4BB9074B08480B4AC01AC0080E23F7
:10BEB00000930004064BECE703601B6802B0BDE88A
:10BEC00010401847944C0200EC4C02005C4F0200FA
:10BED00018510200614F0200904F02002DE9F74314
:10BEE000DDF8288088B93E4B3E483F4AC01AC0085A
:10BEF0000E243E4B009400043D4940F00100FDF744
:10BF0000B6FD204603B0BDE8F0834AB9344B35484E
:10BF1000384AC01AC0080E24344B00940004EBE7E2
:10BF2000D0F800E0BEF1000F09D12D4B2D48324A68
:10BF3000C01AC00808242D4B00940004DCE74BB95C
:10BF4000274B28482D4AC01AC0080924274B0094C3
:10BF50000004D1E74568D5F80490B3FBF9F509FB77
:10BF600015354DB11E4B1F48254AC01AC00809247B
:10BF70001E4B00940004BFE78D0709D0184B1948E9
:10BF8000204AC01AC0081024184B00940004B3E7DC
:10BF900012F0030F09D0124B12481B4AC01AC008F6
:10BFA0001024124B00940004A6E7C568A9420DD3E3
:10BFB0004D1EEC180569AC4208D8CDF82880DEF893
:10BFC0000C40A44603B0BDE8F0436047044B05486D
:10BFD0000E4AC01AC0081024044B009400048BE7DA
:10BFE000944C0200EC4C02005C4F02000551020030
:10BFF000614F0200DE4F02008A4F02009D4F020097
:10C00000E44F02000E500200265002004950020088
:10C01000F7B580B92A4B2B482B4AC01AC0080E240A
:10C020002A4B009400042A4940F00100FDF71FFD4F
:10C03000204603B0F0BDD0F800C0BCF1000F09D11C
:10C040001F4B2048234AC01AC00808241F4B0094E5
:10C050000004E8E74AB91A4B1A481F4AC01AC00838
:10C0600009241A4B00940004DDE74568D5F800E088
:10C070000EF1FF350D4209D0114B1248174AC01A74
:10C08000C0081024114B00940004CCE7C568A942F5
:10C090000CD34D1E0EFB02540569AC4206D8DCF8E9
:10C0A0001040A44603B0BDE8F0406047044B05488B
:10C0B0000B4AC01AC0081024044B00940004B2E7D5
:10C0C000944C0200EC4C02005C4F0200F250020063
:10C0D000614F02008A4F02009D4F02007050020023
:10C0E0009650020029DF704728DF704770B503685B
:10C0F0009E6886B004460D466EB114220021684643
:10C1000008F017FDA3680593237901952BB1012B46
:10C110000DD06846B04706B070BD01238DF80030E1
:10C1200023690293E368039363690493F1E70223AD
:10C130008DF80030E3681B030293F5E7084670476B
:10C1400000207047024B187A003818BF0120704752
:10C1500030250020034B187A0122B0FA80F05A747F
:10C16000400970473025002008B510461A4608F0EF
:10C17000B7FC002008BD000008B5142200210448C7
:10C1800008F0D7FC0348FFF7F8FA002008BD00BF0D
:10C19000302500202025002010B5094C094B4360B4
:10C1A0002046FFF737FC40B908F036FA06492074FC
:10C1B0001C2306488C22FFF7CDFA002010BD00BFDB
:10C1C000302500202C51020094240020202500203E
:10C1D00038B5234D234C2B7A3BB923492348FFF72D
:10C1E00028FB206008B9686038BD022324682B72E0
:10C1F000237973B1012B24D020460321FFF776FF6A
:10C2000000232B726B6018491848BDE83840FFF7CF
:10C210003BBBD4E90523D21AB2F5805FD4E9031001
:10C2200028BF4FF480529208012A38BF01221944D6
:10C230001844FFF757FF50B11128DDD101232B72AD
:10C24000D2E7D4E903031844FFF74EFFF3E72B7C52
:10C25000002BC9D1BDE83840022000F009B800BF6A
:10C2600030250020482500204425002020250020DE
:10C2700038B5234C237A002B41D0022B09D1032857
:10C2800030D0204B00221B68E2601A793AB1012AB3
:10C2900022D0637C7BBBBDE83840FFF799BFD3E970
:10C2A00005128D1AB5F5805F94BF521902F58052C0
:10C2B0009A619142EDD102284FF0000308BF194660
:10C2C0002372104B18BF0D211868FFF70FFF0E499E
:10C2D0000E48FFF7D9FADCE71A6901321A615B6987
:10C2E0009A42E7E7E3680133082B01D8E360D0E71F
:10C2F0000023E360DFE7BDE8384008F07DB938BDD2
:10C30000302500204825002044250020202500203D
:10C31000831E012B01D8FFF7ABBF704700F0FD0370
:10C32000012B08D1044B00225A74421E5042504146
:10C330001874FFF74DBF70473025002010B5064C2C
:10C34000201DFFF767FB28B9637C1BB9BDE81040CF
:10C35000FFF73EBF10BD00BF302500202DE9F3419F
:10C3600080460D46104801A916461F46FFF727FADA
:10C370000446B0B118220021043008F0DAFB2D0B7E
:10C380000123237101A90848C4F80080A760E56073
:10C390006661FFF73EFAFFF7D1FF002002B0BDE86B
:10C3A000F0810420FAE700BF202500202DE9F341A9
:10C3B00080460F460F4801A916461D46FFF7FFF9B4
:10C3C0000446A8B118220021043008F0B2FB089BF3
:10C3D000A36001A9C4E903670648C4F80080656149
:10C3E000FFF717FAFFF7AAFF002002B0BDE8F081BF
:10C3F0000420FAE7202500202DE9F84FB0F806A028
:10C400004579D2F800B09DF828900AFB05F5043D67
:10C4100088460BEB0301A94203F1040488BFA5EB96
:10C42000030BB4FBFAF607460AFB1644C2F800B049
:10C430004EB9AAEB04055D4528BF5D46BBF1000F70
:10C4400004D1BDE8F88F3F68013EF1E7043408EB02
:10C4500006003C442A46B9F1000F0DD02146ABEB53
:10C46000050B08F03DFBDA452E443F6855464FF07A
:10C47000000428BF5D46E1E701462046EFE7FFF7ED
:10C48000D2BAF8B546790146721E0546002393429A
:10C490002D6803D30024A64202D8F8BD0133F6E785
:10C4A0000F682846FFF7FAFA01343946F3E72DE919
:10C4B000F843068ACD1C0746FFF7CCFA043E354404
:10C4C0000446B5FBF6F5F0B14FF48073EDB283800E
:10C4D000C680013D076081464FF00008A84512D292
:10C4E0003846FFF7B7FA064648B1637901336371FE
:10C4F00008F10108C9F8000007608146EEE7204610
:10C50000FFF7BFFF34462046BDE8F8830121043021
:10C51000FFF768BA10B5012104460430FFF76EFA40
:10C52000C0B220B92046BDE81040FFF7AABF10BD39
:10C530001FB503920022009203AAFFF75DFF05B02A
:10C540005DF804FB1FB503920122009203AAFFF7D6
:10C5500053FF05B05DF804FB41DF7047064B10B593
:10C5600000241C70054B1C60BFF35F8F0449054815
:10C5700000F03BF8204610BD54250020582500202F
:10C58000645102004C25002007B500230DF107007F
:10C590008DF80730FDF7FEFFF1EE103A23F09F0310
:10C5A000E1EE103ABFF35F8F0A4B4022C3F88421BB
:10C5B0009DF80700FEF712F808F02EF820B103B03E
:10C5C0005DF804EBFFF7C8BF20BF40BF20BF03B03A
:10C5D0005DF804FB00E100E0836800225A60C3E9D3
:10C5E00004229A60DA601A6070470B684A684360F8
:10C5F000934208BF0023016008BF4360704743684F
:10C6000043B10268916852680B449342436004BF8F
:10C6100000234360704770B5446806460D462068A5
:10C6200018B1B3682946984718B923682B6025606C
:10C6300070BD2468F3E74368186808B102681A609F
:10C6400070474368186870474368186800B97047B6
:10C65000884203D102681A600120704703460068CF
:10C66000F4E7000010B50D49A1F59472914201D88C
:10C6700000200FE08C1AE30F03EBE4035B1002EBE6
:10C68000C30452F83330834205D802D204F10802C1
:10C69000ECE7606810BD2146E8E700BF7056020075
:10C6A00008B5FFF7DFFF024B002808BF184608BD9A
:10C6B000335502000B7B23B14B68036000230371E9
:10C6C00070470B6803600123F9E703684A688968CB
:10C6D00010B5D41A8C428BBF5B1800230360026034
:10C6E00098BF037110BD03680A68896810B59C1A69
:10C6F0008C428BBF5B1A01230360026098BF0371F9
:10C7000010BD037910B504461BB1FFF7DEFF2068AA
:10C7100010BDFFF7E8FFFAE74FF08053D3F8300180
:10C72000421C04BF4FF0704393F8E00F831F584240
:10C73000584170474FF0704393F8E02F062A09D113
:10C74000D3F8E83FC3F30313033B032B02D8024A99
:10C75000D05C7047002070477856020008B5FFF79C
:10C76000DBFF40B14FF080538F4AD3F82433C3F33B
:10C770000423C2F84035FFF7DDFF10B18B4B8C4A24
:10C780005A67FFF7C9FF48B14FF080534FF080421E
:10C79000D3F84432C3F34233C2F83C35FFF7CAFF43
:10C7A00030B1844AD2F8FC3023F08073C2F8FC30F8
:10C7B000FFF7B2FF40B14FF080430022C3F80C21D5
:10C7C000C3F81021C3F83825FFF7B4FF20B14FF0AC
:10C7D00080430322C3F8A025FFF7ACFF60B1764B7E
:10C7E0000522C3F810260122C3F888260022C3F8C8
:10C7F00018263F22C3F814264FF08053D3F8302177
:10C80000511C09BF4FF07043D3F8343193F8E02F37
:10C81000D3F8E83F08BFC3F30313062A4DD1033B07
:10C82000032B03D8654AD35C002B46D04FF08052CF
:10C83000634BD2F80414C3F82015D2F80814C3F8D7
:10C840002415D2F80C14C3F82815D2F81014C3F824
:10C850002C15D2F81414C3F83015D2F81814C3F8F4
:10C860003415D2F81C14C3F84015D2F82014C3F8BC
:10C870004415D2F82414C3F84815D2F82814C3F884
:10C880004C15D2F82C14C3F85015D2F83014C3F854
:10C890005415D2F83414C3F86015D2F83814C3F81C
:10C8A0006415D2F83C14C3F86815D2F84014C3F8E4
:10C8B0006C15D2F84424C3F87025FFF72DFF48B15A
:10C8C0004FF080534FF08042D3F8583203F04F03BB
:10C8D000C2F8E43EFFF720FF48B14FF08043D3F8A1
:10C8E0000024D20744BF6FF00102C3F800244FF0C8
:10C8F0008053D3F83021062A0ED1D3F83431033BCC
:10C90000032B02D82F4AD35C33B12F4AD2F83C37DD
:10C9100043F48063C2F83C37264AD2F8883043F4A7
:10C920007003C2F88830BFF34F8FBFF36F8F4FF0A3
:10C930001023D3F80022002A03DBD3F80432002BA3
:10C940002EDA224B0122C3F80425D3F80024002A52
:10C95000FBD04FF010221521C2F80012D3F80024AA
:10C96000002AFBD04FF010231522C3F80422174BE6
:10C97000D3F80024002AFBD00022C3F80425D3F802
:10C980000024002AFBD0BFF34F8F0A49104BCA681E
:10C9900002F4E0621343CB60BFF34F8F00BFFDE7AB
:10C9A0000C4B0D4A1A6008BD0030014000C0074022
:10C9B0000DF0ADBA00ED00E00050004070560200EE
:10C9C00000C00040745602000010004000E001402A
:10C9D0000400FA05781A00200090D003054A4FF0B1
:10C9E000A043105CD3F8043523FA00F0C04300F0F4
:10C9F0000100704780560200044B1A5C01239340EB
:10CA00004FF0A042C2F80C35704700BF80560200BC
:10CA1000044B1A5C012393404FF0A042C2F8083542
:10CA2000704700BF8056020008B50020FFF7F0FFF6
:10CA30000120FFF7EDFF0220FFF7EAFFBDE8084005
:10CA40000320FFF7E5BF08B50020FFF7D5FF012061
:10CA5000FFF7D2FF0220FFF7CFFFBDE80840032019
:10CA6000FFF7CABF074A4FF0A041105CD1F8043568
:10CA70000122824022EA03001340C1F80805C1F8F0
:10CA80000C35704780560200054A4FF0A043105CF9
:10CA9000D3F8103523FA00F0C04300F001007047CE
:10CAA0007C5602000D2809D00E2809D00F2809D085
:10CAB00010280CBF03204FF0FF3070470020704754
:10CAC0000120704702207047014B185C704700BF7F
:10CAD0007C560200C20708B501460CD54FF0A043B2
:10CAE0000322C3F84427C3F84827C3F84C27C3F8E8
:10CAF0005027FFF799FF8B070AD54FF0A0430C2270
:10CB0000C3F83427C3F83827C3F83C27C3F84027B5
:10CB100008BD000038B5074C051E04F1080318BF16
:10CB20001C4623682BB11A6822605B682846984728
:10CB3000F7E738BD6425002020B9054B01225A7063
:10CB4000FFF7E8BF012802D1014A9070F8E770476B
:10CB50005C25002020B9034B01225A70FFF7DABF91
:10CB6000704700BF5C25002038B50E4C2378B3B960
:10CB70000D486360A3602361E36000F0E7F80546B9
:10CB800007F04AFD08B900F0EDF801232370074BC8
:10CB9000D3F800340BB10123A370284638BD852596
:10CBA000F5E700BF5C25002039CB01000000014003
:10CBB00037B50D4C00230DF107008DF80730FDF758
:10CBC000E9FCE368013BE360E36833B9074BD3F862
:10CBD000005415B900F0D8F8A5709DF80700FDF7CE
:10CBE000FDFC03B030BD00BF5C250020000001400B
:10CBF000012813B50CD0032820D038B9134B0122DB
:10CC0000C3F88020BFF34F8FBFF36F8F02B010BD0A
:10CC10000F4C00230DF107008DF80730FDF7BAFC2B
:10CC200023780BB9FFF7A0FFE3689DF807000133F5
:10CC3000E3600123A370FDF7D1FCE7E700F092F871
:10CC400002B0BDE81040FFF7B3BF00BF00E100E055
:10CC50005C2500201FB503788DF8003043680193F0
:10CC600083688DF80830C368054A0393054B68460E
:10CC700053F8213052F82110984705B05DF804FBB5
:10CC800070250020742500201FB503788DF8003032
:10CC90004368019383688DF80830C368054A03939D
:10CCA000054B684653F8213052F82110984705B0DB
:10CCB0005DF804FB7025002074250020F0B5194BA9
:10CCC00090F800C091F81DE043F82C20164B164652
:10CCD0000A6943F82C20154B03F80CE00C46074674
:10CCE0000FCC89B06D460FC594E80F0085E80F00A2
:10CCF000CDF810C0BEF1000F09D0002E0C4A6946D5
:10CD000008BF3246381D00F083FD09B0F0BD002E8B
:10CD1000084A694608BF324607F10C0000F05AFB8A
:10CD2000F3E700BF7425002070250020782500203F
:10CD300055CC010089CC010000F18040002382B075
:10CD4000036003680193019B02B07047044A1379A2
:10CD500023B90121106091801846704785207047E3
:10CD60007C250020074B1A68D20704D4C02283F820
:10CD7000002301221A604FF080430122C3F81825D6
:10CD8000704700BF00E100E04FF0804208B5022389
:10CD9000C2F808334FF48270FFF7CEFF0123D3604F
:10CDA000D2F81834DB03FBD408BD00004FF08041FB
:10CDB00010B5D1F8003163B14FF48070FFF7BCFFBC
:10CDC0000D4B58790122C1F8082310B95A711B681C
:10CDD00098474FF08042D2F8043163B14FF482702B
:10CDE000FFF7AAFF0223C2F80833034BBDE8104047
:10CDF0001B680120184710BD7C25002000F18040F1
:10CE000000F5C040002382B0036003680193019BDA
:10CE100002B07047800000F1A040D0F8002722F453
:10CE20004032C0F80027D0F8003743EA0141C0F88B
:10CE300000177047054B4FF0FF32072843F82020BA
:10CE400084BFC01880F84820704700BF84250020A8
:10CE500010B5184991F8583053BB4FF0FF3222FA01
:10CE600003F0C00748BFC81803F1010348BF80F8AA
:10CE70003020202BF3D10024E0B20134FFF7DAFF99
:10CE80000C2CF9D10C4B0022C0204A6583F8060314
:10CE9000402018604FF4BE70FFF7B0FF074B4FF013
:10CEA0000040C3F80403012381F85830104610BD38
:10CEB0000820FCE78425002000E100E0006000403D
:10CEC000034B93F85800003818BF0120704700BF8B
:10CED00084250020F0B5394E331893F93030002BFB
:10CEE00069DA8D78C5F34005002D0BBF08230023B8
:10CEF0000C240824A34201D10420F0BD56F823706D
:10CF0000013743D137185CB246F8232087F8304008
:10CF100015B9F21882F848008A78550716D4D70751
:10CF200036D5820002F1A042D2F8005725F0020562
:10CF3000C2F80057224FC50800F0070C012202FA80
:10CF40000CF217F805C042EA0C027A558A780D787F
:10CF500012F0020225D09B0003F1804303F5C04389
:10CF60000002D3F8102522F4473222F44072C3F8AD
:10CF700010252D04D3F8102500F4F85005F44035A1
:10CF800028431043C3F810050020B6E70133B1E78A
:10CF90004D7800F5E0724FF0A047AD0047F8225001
:10CFA000C8E7083C46FA84F494F8500040EA851536
:10CFB00084F85050E8E708209FE700BF8425002050
:10CFC000D825002038B5204C251895F93020072A9F
:10CFD00018DD083A44FA82F494F850309B09032B88
:10CFE0000BD14FF0A043D3F81015C14001F001015F
:10CFF0000231BDE83840FFF70DBF012B0CBF022105
:10D000000321F6E7D3B2072B1DD8930003F1804329
:10D0100003F5C043D3F8100540F00100C3F8100534
:10D0200002F1400040B2800080B2FFF7E7FE51B14C
:10D0300095F9303054F823302BB1012303FA02F272
:10D04000024BC3F8042338BD842500200060004053
:10D050004FF0A043D3F8103523FA00F000F00100A0
:10D06000704700002DE9F74F00244E4D01944FF416
:10D070008072012102F1804303F5C04390B21B6826
:10D08000012B06D1D5F804330B4202D0FFF7B6FED0
:10D090000C430432B2F5907F4FEA4101EAD1414B93
:10D0A000D3F87C31012B0CD14FF4BE70FFF7A6FEF4
:10D0B0004FF0A04344F00044D3F820250192C3F878
:10D0C0002025E3B2D3B1384F00250126344210D0D9
:10D0D000AB0003F1804303F5C043D3F81005D3F848
:10D0E000101557F8253023B1C1F30141C0F30420D6
:10D0F00098470135082D4FEA4606E7D1002C48DA5B
:10D10000294D4FF0A048294E4FF00009012716F98C
:10D11000013B5A1C31D0C3F3C20202A90A44DCB25B
:10D1200012F8042C03F03F0A03F0070307FA03F395
:10D130001A4222D00AF5E073504658F82330C3F360
:10D14000014BBBF1020F0CBF03210221FFF762FE6E
:10D1500007FA0AF3C8F8203505EB0A0393F93030D3
:10D1600055F823304BB1A109032904D0BBF1020FBC
:10D1700012D1012901D15046984709F10109B9F1AD
:10D18000040FC4D1D8F820350193C8F82035002BFE
:10D19000B9D103B0BDE8F08FBBF1030FEDD1022987
:10D1A000E8E700BF0060004084250020D42500206F
:10D1B000014B1B68184700BFE02500200E4B98422A
:10D1C00037B50C4602D0002003B030BD00230DF16E
:10D1D00007008DF80730FDF7DDF9084B1D7915B90B
:10D1E00001221C601A719DF80700FDF7F7F9002D68
:10D1F000E9D01120E8E700BF00200040E025002032
:10D20000034B984201BF034B00221A601A7170470A
:10D2100000200040E02500200023435082B0435806
:10D220000193019B02B070470A4610B54FF48E710E
:10D23000FFF7F2FF136A9168C95C136A0133136246
:10D24000C0F81C1510BD8B690A4610B54FF48471E7
:10D2500023B9FFF7E1FFD0F8183510BDFFF7DCFF69
:10D26000536AD168D0F81805C854536A0133536221
:10D27000F3E700001FB501238DF80030044BCDE922
:10D280000110D3E900126846904705B05DF804FB31
:10D29000E825002030B54D4DD5F804339A0585B00A
:10D2A00051D5D5F82431002B4DD04FF4927128463A
:10D2B000FFF7B2FF4FF40173C5F80833444B93F8FE
:10D2C00029200AB901226A60404902228DF8002013
:10D2D000D1F88024C1F8802403929A690292DA6816
:10D2E00001920022C3E906226846D3E90012904762
:10D2F0003648D0F81C315BB1354A5169136A9942FE
:10D300004DD992F82830002B49D11146FFF78CFFF8
:10D310002E48D0F84431002B56D04FF4A271FFF7BD
:10D320007BFF2B4B93F829200AB1012202609A69F6
:10D33000002A49D0586AD96800229A6105B0BDE830
:10D340003040FFF797BFD5F804335B07D0D5D5F849
:10D350000831002BCCD01E4C1C482146FFF773FF30
:10D36000636AA2699A42C3D1E369E1684BB1A361E0
:10D370002369E3600023606AE3616362FFF77AFF79
:10D38000B6E794F829300BB901236B600F4B4FF4CB
:10D390000172C3F808230023606AA361EEE70B481B
:10D3A0004FF48E71FFF738FF5369002BB0D05169ED
:10D3B0000291002391688DF8003001915361684615
:10D3C000D2E900139847A3E705B030BD0020004024
:10D3D000E82500202DE9F843534D90F804802C23D4
:10D3E00003FB0853064693F82A300C469146002B5F
:10D3F00040F096804D490068FFF7E0FE07460028A0
:10D4000040F0908022683068511C0BD04FF0A04152
:10D4100001239340C1F8083502F5E0734FF0030C87
:10D4200041F823C061684B1C1FBF01F5E0734FF04A
:10D43000A04C4FF0000E4CF823E0A369C0F824354F
:10D4400094F814C0637DBCF1010F4CEA0303C0F8EB
:10D450006C35C0F81415C0F80C251DD1A268531CFA
:10D460001FBF02F5E0734FF0A0414FF0000C41F8F0
:10D4700023C0E368591C0BD04FF0A04C0121994008
:10D48000CCF8081503F5E0714FF0030E4CF821E0DD
:10D49000C0F80835C0F810252C2202FB08F2AB18A2
:10D4A000C3F804902369AB50B9F1000F20D04FF4BA
:10D4B0008E71247FFFF7B0FE4FF4A2713068FFF742
:10D4C000ABFE32681A4BC2F80433130B42F3073237
:10D4D0006101002AC9B21EDB1648841884F80013C3
:10D4E0000121520903F01F0301FA03F340F822302F
:10D4F00033680422C3F800252C2303FB08530022C1
:10D50000C3E9062283F829205A61012283F82A20E0
:10D510003846BDE8F883084A03F00F03D154E7E723
:10D520000827F5E71127F3E7E825002095D2010049
:10D530008000020000E100E014ED00E0F8B50368AF
:10D540000579304C0022C3F800252C2202FB05424D
:10D550005268A2B12C4AC3F808231A0B43F30733CD
:10D56000002B0CDB02F01F015B0901228A402033F3
:10D57000264941F82320BFF34F8FBFF36F8F006818
:10D58000D0F80C65D0F81415D0F80835D0F810256F
:10D590004FF0FF37BE42C0F8147518BF06F5E076AD
:10D5A000C0F80C75C0F80875C0F810751EBF4FF0B4
:10D5B000A0474FF0020C47F826C04E1C1FBF4FF08B
:10D5C000A04601F5E071022746F82170511C1FBFEB
:10D5D0004FF0A04102F5E072022641F822605A1C89
:10D5E0001FBF03F5E0734FF0A042022142F8231061
:10D5F000FFF706FE2C2303FB0544002384F82A30A2
:10D600006360F8BDE82500208402020000E100E02C
:10D610000279044B2C2101FB02335869003818BFF2
:10D6200001207047E82500202DE9F84F064690F8C4
:10D63000048089469246FFF7EBFF044600283CD160
:10D64000204F2C2508FB057B4FF48E71CBF814A0DE
:10D65000CBF80890CBF820008BF828003068FFF753
:10D66000DBFD3068012383605946FFF7DDFDDBF801
:10D6700004305D461BBB3068DBF814402B6A9C42CB
:10D6800011D83368D3F81C21002AFBD00122DA60BC
:10D6900000202C2303FB087700237B61BDE8F88F73
:10D6A00095F828303BB9D0F81C31002BF8D05946FA
:10D6B000FFF7BAFDE2E70F20EBE71120EEE7204687
:10D6C000ECE700BFE82500200023435082B0435818
:10D6D0000193019B02B070471FB501238DF8003004
:10D6E000044BCDE90110D3E900126846904705B01C
:10D6F0005DF804FB142600207FB5434AD2F824616C
:10D70000002E60D010464FF49271FFF7DDFF022328
:10D710008DF80030D2F88034C2F880340393D2F808
:10D720003C350293394BDA6801920022C3E90622A4
:10D730006846D3E9001290473348D0F8443173B1BA
:10D740004FF4A271FFF7C0FF304B9A693AB1002243
:10D75000C3E90622D968D0F83C05FFF7BDFF2A4887
:10D76000D0F82031ABB14FF49071FFF7ADFF01233A
:10D77000C360264B5A6962B1D0F84C150291002261
:10D7800099688DF8002001915A616846D3E900122A
:10D7900090471D48D0F858319BB14FF4AC71FFF75A
:10D7A00093FF1A4B5A6962B1D0F84C1502910022CE
:10D7B00099688DF8002001915A616846D3E90012FA
:10D7C000904704B070BDD2F81031002BB4D04FF4A4
:10D7D00088711046FFF778FF0C4BD2F83C05996929
:10D7E0008842A9D1DC69D96864B1D2F8005225F029
:10D7F0002005C2F800521A699C61DA60DE61FFF709
:10D800006BFF99E79C61FAE7002000401426002096
:10D810002DE9F8435A4E90F80480242303FB086353
:10D82000044693F820300D469146002B40F0A3802B
:10D8300054490068FFF7C2FC0746002840F09D806D
:10D840002A682068511C0BD04FF0A041012393405F
:10D85000C1F8083502F5E0734FF0030C41F823C01E
:10D8600069684B1C1FBF01F5E0734FF0A04C4FF0EF
:10D87000000E4CF823E0AB69C0F8243595F814C0CD
:10D880006B7DBCF1010F4CEA0303C0F86C35C0F8A6
:10D890000C25C0F814151DD1AA68531C1FBF02F532
:10D8A000E0734FF0A0414FF0000C41F823C0EB684B
:10D8B000591C0BD04FF0A04C01219940CCF8081511
:10D8C00003F5E0714FF0030E4CF821E0C0F8083585
:10D8D000C0F81025242202FB08F2B318C3F8049004
:10D8E0002B69B350B9F1000F2FD04FF488712A7F04
:10D8F000FFF7EAFE20684FF49071FFF7E5FE20681D
:10D900004FF49271FFF7E0FE20684FF4A271FFF729
:10D91000DBFE4FF4AC712068FFF7D6FE23681A498E
:10D92000C3F80413190B43F307335201002BD2B28F
:10D930001CDB1648C51885F8002301225B0901F09D
:10D940001F0102FA01F140F8231023680822C3F8EE
:10D950000025242303FB08660023C6E90633736110
:10D96000012386F820303846BDE8F883084B01F0E3
:10D970000F015A54E9E70827F5E71127F3E700BF3D
:10D9800014260020F9D601001003420000E100E057
:10D9900014ED00E0F8B5444C0579242303FB05435E
:10D9A00002465B680068ABB1404BC0F8083340F3F7
:10D9B0000733002B4FEA10310CDB01F01F065B0927
:10D9C0000121B14020333A4E46F82310BFF34F8F68
:10D9D000BFF36F8FD0F8003223F02003C0F800327D
:10D9E000242303FB05439B692BB14FF4A271FFF77E
:10D9F0006BFE012343604FF4AC71FFF765FE01231A
:10DA0000C360242303FB0543D0F858110029FBD041
:10DA1000996919B1D0F844110029F5D00023C0F854
:10DA200000351368D3F80C75D3F81465D3F80825BE
:10DA3000D3F810154FF0FF3C6745C3F80CC518BF6D
:10DA400007F5E077C3F814C5C3F808C5C3F810C5D7
:10DA50001EBF4FF0A0434FF0020C43F827C0771CC5
:10DA60001FBF4FF0A04306F5E076022743F826706B
:10DA70004E1C1FBF01F5E0714FF0A043022643F892
:10DA80002160531C1FBF4FF0A04302F5E07202213A
:10DA900043F82210FFF7B4FB242303FB05440023C3
:10DAA00084F820306360F8BD142600201003420083
:10DAB00000E100E00279044B242101FB02335869A4
:10DAC000003818BF012070471426002001F0604381
:10DAD000B3F1005F2DE9F0470646884692463BD1F8
:10DAE00090F80490FFF7E6FF0446002836D11D4F5A
:10DAF0003068242505FB09754FF49071C5F814A012
:10DB0000C5F80880FFF7E0FD4FF4AC713068FFF70F
:10DB1000DBFD33686A69A968C3F84415C3F8482572
:10DB200001229A606A68DAB9D3F82021D3F8580143
:10DB30001AB90028F8D00F2007E00028FBD10122F5
:10DB4000DA60D3F85821002AFBD0242303FB09779D
:10DB500000237B61BDE8F0871020FBE71120F9E787
:10DB60002046F7E7142600200220FEF77BBF0000C6
:10DB70002DE9F04780460D46FEF794FF0328044642
:10DB800010D8012D10D0022D30D05DB91A48FCF705
:10DB90002CFC1A4B04EB440213449D78184B1B5D7C
:10DBA000AB4219D0BDE8F087144E00EB4003F218E9
:10DBB000F55C5378470053B1DFF84C900E484A4665
:10DBC0004FF48041FCF7F9FB08B989F8008027443D
:10DBD0003E440B4BB2781A55002DE3D0094B1B681D
:10DBE000002BDFD02846BDE8F047184700EB400483
:10DBF000024804446578EFE760260020A026002054
:10DC0000B9260020B4260020382600200078022102
:10DC1000FFF7AEBF08B5094B1B7853B10020FEF7E4
:10DC2000F7FE0120FEF7F4FEBDE808400320FEF7F2
:10DC3000EFBEBDE80840FEF7F7BE00BF3926002062
:10DC4000F8B57A4C237805461BB100232370FFF703
:10DC5000E1FF172D00F28780DFE805F00C1717426F
:10DC60005364757F878C878C949999999999C3C8C7
:10DC7000D0D8E3E3FFF7CEFF6D48FCF7B6FB6D4B62
:10DC8000002204461A702046F8BD0020FEF7A6FECA
:10DC9000F0B10020FEF7BCFE022D0CBF4FF4E16492
:10DCA0004FF47A64634B1D7000254FF400464FF427
:10DCB0007A7029464FF4FA620023E4FB060106F06D
:10DCC00013FE2A460146BDE8F8405948FCF775BBEB
:10DCD000FEF792FE022D0CBFC8244FF4C874E1E792
:10DCE0000020FEF77BFE40B10020FEF791FE4FF4CE
:10DCF0004874504B03221A70D6E7FEF77DFEC82405
:10DD0000F7E70020FEF76AFE38B10020FEF780FE3C
:10DD10004FF47A64474B0422EDE7FEF76DFE4FF4B3
:10DD2000C874F7E70020FEF759FE48B10020FEF75F
:10DD30006FFE404B05221A7040F6CD410022C2E72B
:10DD4000FEF75AFEF5E70020FEF78CFE394B06225F
:10DD50001A70002240F26661B5E70020FEF74CFE23
:10DD6000344B07221A7000248DE701202070FEF743
:10DD700079FEEEE701202070FEF774FE00224FF4DA
:10DD80000051A0E7FEF75FFE2A4B0C22EAE72A4883
:10DD90002A4EFCF72AFBD5F1110504461CD0D8B950
:10DDA000012D13D0C820454321464FF400474FF4BE
:10DDB0007A704FF4FA620023C5FB070106F094FD68
:10DDC000224601461C48FCF7F8FA04460220FEF7FA
:10DDD00013FE0123337056E70220FEF719FE0023DD
:10DDE000F8E7FFF717FF134B1222BBE7FFF712FF0D
:10DDF0000020FEF701FE0F4B1322B3E7FFF70AFFE7
:10DE00000120FEF7F9FD0B4B1422ABE7FFF702FFF1
:10DE10000020FEF7F1FD0120FEF7EEFD054B152277
:10DE2000A0E7FEF710FE034B1D709CE7B026002014
:10DE300080260020B8260020402600203926002019
:10DE4000044B1B68DB0703D5034B1878FFF7F8BEBC
:10DE5000704700BFAC260020B826002010B500296E
:10DE600014BF03240024FEF72FFE800000F1A04021
:10DE7000D0F8002722F44032C0F80027D0F800374D
:10DE800043EA0443C0F80037002010BD032801D83E
:10DE9000FEF7FABD00207047044B1B6813F0010326
:10DEA00001D0FFF7CDBE1846704700BFAC2600205A
:10DEB00038B51C4B18601C4B10F002040546196065
:10DEC0001AD01A4B1A480E221A700F22DA7010223A
:10DED0009A7111225A72042140F23332FCF740F851
:10DEE000044648B9FCF794F8044628B90146114A9B
:10DEF0001148FCF757FA0446EB0711D50120FEF74D
:10DF0000E9FD6CB921460D4A0D48FCF74BFA044671
:10DF100030B9BDE838400B4A0B480121FCF742BA42
:10DF2000204638BDAC260020B4260020A0260020C4
:10DF3000A85602000DDC0100CC56020041DE0100B3
:10DF4000D056020069DB0100C8560200032811D830
:10DF5000012A0AD101290FD100F10E02D2B20D4BD4
:10DF600000EB40001A54002070470129F7D0022925
:10DF700004D049B1072070470022F8E7054B00EBB9
:10DF8000400018444270EEE7024B00EB400018449A
:10DF90008270E8E7A0260020032802D80121FFF7BD
:10DFA0005DBF0620704708B5012202210020FFF75F
:10DFB000CDFF08B1072810D1072202210120FFF769
:10DFC000C5FF08B1072808D100210A220846FFF73B
:10DFD000BDFF10B1072808BF002008BD0388102B23
:10DFE00010B502D0112B1ED010BD1A4C2168B1B94A
:10DFF00001220846FFF7AAFF08B1072824D107220B
:10E0000002210120FFF7A2FF08B107281CD104223A
:10E0100002210020FFF79AFF08B1072814D12368D6
:10E0200001332360E0E70B4A1368013B1360002BC8
:10E03000DAD1FFF7B8FF0028D6D0074B1B68002BBA
:10E04000D2D0BDE810401847034B1B68002BE6D028
:10E050009847E4E7C4260020C026002008B5002029
:10E06000FFF79AFF08B1062806D10120FFF794FFB9
:10E0700010B1062808BF002008BD00000D4B10B5E8
:10E0800018600C4629B10120FFF700FF40B10223C0
:10E090002370094B1B6853B9BDE81040FFF783BFDD
:10E0A000FFF7F4FE08B10B23F2E72070F1E7002040
:10E0B00010BD00BFC0260020C426002076DF7047B8
:10E0C00078DF70477ADF70477CDF70478FDF7047FB
:10E0D00033DF7047FBF7B2BF08B50C490C48FEF7B9
:10E0E00010FB4FF6FE72C1B20A4805F069FA132818
:10E0F00007D943F20143984207D0BDE80840FBF737
:10E100009DBF054BC340DB07F7D508BDD4280020D1
:10E11000E4280020C028002001810A0008B5002062
:10E12000FFF7BAFE08B1FBF789FFFFF797FF08B1C9
:10E13000FBF784FFFFF7CCFF18B1BDE80840FBF701
:10E140007DBF08BD2DE9F043074685B016461C4645
:10E15000CD18A2EB03084FF0000902ABA01C424609
:10E16000294613FA80F0CDE9029906F0B9FC0120A6
:10E17000FFF78CFE28B19DF8083043F002038DF8BC
:10E1800008300F4A0F4B11781B8899B90093082269
:10E1900002AB384606F06EF838B90134A4B2A64294
:10E1A00005F1010508F1FF38D7D20C9B1C8005B0A2
:10E1B000BDE8F08302AA0821384606F0BAF8EBE77A
:10E1C000442900208C1A00207FB5082203460192C2
:10E1D00001A94FF6FF7202A803F008FD08B1FBF792
:10E1E0002DFF019902A803F0D9FC08B1FBF726FF27
:10E1F00007B05DF804FB000000B5B3B008286BD889
:10E20000DFE800F04B0519202C3844506D003F48E2
:10E210003F4B4049C01AC008000440F00300FBF720
:10E220000FFC0520FFF738FE002855D033B05DF80D
:10E2300004EBFBF703BF3548354B3749C01AC0081C
:10E240000004EAE7324B31483449C01AC0080004E0
:10E2500040F00300FBF7F4FB0220E3E72C4B2B48D4
:10E260002F49C01AC008000440F00300FBF7E8FB88
:10E270000420D7E72548264B2A49C01AC0080004C5
:10E2800040F00300FBF7DCFB0320CBE71F48204BEB
:10E290002549C01AC0080004F2E733B05DF804EB6A
:10E2A000FFF73CBF0823CDE9023312AA03AB02A952
:10E2B00004A803F05BFC08B1FBF7C0FE0220FFF7E7
:10E2C00083FF039B0093029A184812AB04A901F044
:10E2D0007FF808B1FBF7B2FE33B05DF804FB144BD6
:10E2E00018884FF6FF739842F6D012A903F028FD64
:10E2F0000528F1D008B1FBF7A1FE0620FFF764FF67
:10E300000DF15901094801F050F8E2E7BC4C020058
:10E31000944C0200D4560200DE560200F45602006D
:10E32000065702001857020039570200C82700207C
:10E33000462900207FB5082301934FF6FF72012381
:10E3400001A902A803F052FC08B1FBF777FE0B4BC2
:10E350000B48019A0B49C01AC008000440F00300A2
:10E3600008230132FBF779FB019902A803F0F4FBC3
:10E3700008B1FBF763FE07B05DF804FB944C0200A4
:10E38000BC4C02005A57020008B5FFF7D3FF0548FE
:10E39000032100F0D6FE18B1BDE80840FBF74EBEE1
:10E3A00008BD00BFC8270020F0B51D4F85B084B25E
:10E3B0000DF10E03009305460023224638460E4613
:10E3C000FFF7C0FE13281FD1BDF80EC0644519D356
:10E3D000144B93F83E40062C14D093F83D200C21AA
:10E3E00051430132D2B25818052AC0E9016704F13D
:10E3F000010408BF002203F801C0457083F83E40C5
:10E4000083F83D2005B0F0BD30F00802FAD01128A5
:10E41000F8D043F201429042F4D0FBF70FFEF1E74F
:10E42000901A002078270020043810B50A283AD81E
:10E43000DFE800F00A393916393906393939200050
:10E44000BDE81040FFF76ABE174B13211888FFF78D
:10E4500035FE30F0080326D0BDE81040FBF7EEBDD6
:10E46000114B1A884FF6FF739A421CD10F4800F0E7
:10E47000C0FFEEE70C4B1A884FF6FF739A4212D09A
:10E480000B4C01202168FFF78FFF2368094A0133F5
:10E49000236013780133DBB2062B137001BF064BE8
:10E4A00023600023137010BD8C1A0020C8270020A1
:10E4B000281C00205C290020201C00201FB50B78A0
:10E4C000052B35D0062B38D0042B34D18B79022B79
:10E4D00031D1CB797BBB0DF10F020192244A254843
:10E4E000128800921946012205F062FF08B1FBF77D
:10E4F000A5FD214C9DF80F30227803F00203FAB9F4
:10E50000CBB11E4B1E481F49C01AC008000440F082
:10E510000300FBF795FA1020FFF7BEFC08B1FBF7EC
:10E520008DFD19490620FFF73FFF0123237002E00C
:10E53000164B01221A7004B010BD144B0022F9E7EB
:10E54000002BF8D10D4B0E481149C01AC008000429
:10E5500040F00300FBF774FA1120FFF79DFC08B1AF
:10E56000FBF76CFD0B490620FFF71EFF0023DDE7DC
:10E570008C1A0020901A002010290020944C0200D0
:10E58000BC4C020087570200861A00204429002054
:10E590009F570200801A002010B5044604F07CF852
:10E5A000204603F057FE2378082B0BD00C2B05D008
:10E5B000022B02D10D4BA2881A8010BDBDE810407D
:10E5C000FFF7E2BE237CDB07F7D5237A072BF4D1D4
:10E5D000074B08480849C01AC008000440F003006F
:10E5E000FBF72EFABDE81040FFF7A4BE4629002035
:10E5F000944C0200BC4C0200B85702007FB5194C85
:10E6000094F83E30B3B1B8B194F83C500C235D435C
:10E6100066190DF10E030093D6E90110635D72785F
:10E62000FFF790FD132807D1BDF80E3072789A429B
:10E6300002D3635504B070BD94F83C300C2202FB49
:10E64000034200215160013394F83E20DBB2013ACD
:10E65000052B84F83C3084F83E2008BF84F83C1039
:10E66000E8E700BF7827002037B505883B2D044632
:10E6700055D007D8112D2CD0212D42D0102D0BD0E4
:10E6800003B030BD562D4AD0572DF9D1012003B02B
:10E69000BDE83040FFF7B2BF234B24482449C01ADD
:10E6A000C008000440F00300FBF7CAF90720FFF799
:10E6B000F3FB08B1FBF7C2FC1E4BA1881E48198072
:10E6C00002F0CCFB0028DBD003B0BDE83040FBF704
:10E6D000B5BC154B15481949C01AC008000440F0D4
:10E6E0000300FBF7ADF90020FFF788FF114B4FF651
:10E6F000FF721A80124B002228461A70FFF7CCFBDB
:10E70000E0E7002380888DF8043001A98DF80530FA
:10E71000FFF7DCFC0028B3D0FBF790FCB0E7A08843
:10E720001321FFF7CBFCCDE7944C0200BC4C020058
:10E73000EC5702008C1A002048290020F6570200EE
:10E7400010290020FBF77ABCFBF778BCFBF776BCFE
:10E750002DE980484FF48041AFB00020FAF7D6FF92
:10E7600008B1FBF76BFCFAF70FFFFBF7E9FD08B107
:10E77000FBF764FCBB4ABC480121FBF713FE08B160
:10E78000FBF75CFCB9490320FFF792FB08B1FBF7EC
:10E7900055FC03A90020FFF771FC08B1FBF74EFC04
:10E7A0009DF80C50FDF7DAFE08B1FBF747FC05F0C9
:10E7B000B5FE08B1FBF742FC002303A90120039337
:10E7C00005F086FF08B1FBF739FC03A806F01EF838
:10E7D00008B1FBF733FCA64A0A210820FBF772FCBC
:10E7E00008B1FBF72BFC01AE1123A2498DF80430D0
:10E7F0000D223046FFF768FC08B1FBF71FFC40F222
:10E80000C130FFF75DFC08B1FBF718FC0623ADF83B
:10E810000C301822ADF8103003A82B23ADF80E20D1
:10E82000ADF81230FFF74EFC08B1FBF707FC924839
:10E83000002102F037FA08B1FBF700FCA422002106
:10E8400003A806F076F902238DF80C3040F201633C
:10E85000ADF80E3001232820ADF81C308DF885303E
:10E860008DF8863040F6B833CDE9250340F2011328
:10E87000ADF888304FF4486444F25063CDE9274343
:10E880007E4B7F4A2C937F487F4B089203A92D93A0
:10E8900000F0E7FB08B1FBF7D1FB7A48012100F05B
:10E8A000DDFB7A4B7A48039303A902F0C5FA08B15D
:10E8B000FBF7C4FB41F61513ADF806304EF6EE63D8
:10E8C0000224ADF8083040220123002103A8ADF84E
:10E8D0000A308DF8044006F02CF903A86D4901F0C8
:10E8E00099F803A811968DF8484004F0F9FE08B194
:10E8F000FBF7A4FB00240123CDE903448DF810307D
:10E9000003F1023361336448059403A9069304F0CC
:10E91000E3FD08B1FBF792FB604EDFF8B091604F6A
:10E9200034604FF0010840F2022A7460C9F80040D8
:10E930003C60C9F804407C600823022433804FF017
:10E94000030B002186F80380A6F804A0B4714022CE
:10E9500005A8A9F8008089F80340A9F804A03C8024
:10E9600087F803B0A7F804A006F0E3F84D4B039333
:10E970004D4B04934C23ADF830304C4B0B934C482B
:10E980008DF8148040F2011303A98DF816800696C5
:10E990008DF81C80CDF820908DF824800A97ADF872
:10E9A0003C308DF83FB08DF838408DF840408DF800
:10E9B0004E40ADF850A08DF85240ADF848A08DF80B
:10E9C0004A4005F079FA08B1FBF738FB39493A4873
:10E9D00051226423C1E9002301238B600B73FDF7EF
:10E9E00069FE0021182203A806F0A3F84FF4F023D3
:10E9F0004FF4A031CDE9041303238DF8183003A898
:10EA00002E4B099300F014FE08B1FBF717FB2C4BBB
:10EA100000229A875A601A61DA619A625A6383F80F
:10EA20003E2002F0E7FF08B1FBF708FB31238DF829
:10EA30000C3007238DF80D3010238DF80E3003A80D
:10EA400003238DF80F308DF8103003F06DF808B106
:10EA5000FBF7F4FA1B4803F04FF808B1FBF7EEFAA6
:10EA6000194B35E0D9E001005058020029E40100BB
:10EA7000C82600200358020014290020F9E10100F3
:10EA80007C1A0020C827002049E701004DE701005B
:10EA90004829002011580200C0280020C02700206B
:10EAA000B8270020BDE40100D5E001002C1C0020A7
:10EAB000901A0020D4280020E428002045E7010017
:10EAC0007827002099E50100944C02005429002089
:10EAD000144C1549E41AE408240444F003042046C5
